:1000000005308A005A2D00000A108A100A11820752
:1000100028340C3401340634D4326D383A102517A4
:1000200031334300C434733A3A10A53AE33600162C
:10003000343084008313000803192C280130F800A1
:10004000F701F70B2128F80B20284A30F700F70BAF
:1000500027282A28800B1E2808003B183128081260
:1000600032280816831608128312BB183928881202
:100070003A2888168316881283123B1941280813E0
:1000800042280817831608138312BB1949288813BE
:100090004A288817831688130000831208158316D0
:1000A00008115228831208118316081183120800C0
:1000B000BC018316081600308312081A0130BC04F4
:1000C0008316881600308312881A0130F700031057
:1000D000F70D7708BC048316081700308312081B3D
:1000E0000130F700F70DF70DFC30F7057708BC0479
:1000F0008316881700308312881B0130F700F70D34
:10010000F70DF70DF830F7057708BC043C08F80048
:10011000080083160811081088108312081083162F
:100120000810081688160817881783128814831673
:10013000881000008312081583160811000083122E
:1001400058207808BB00081183160811000083129C
:100150000815831608110000831258207808BA0089
:1001600008118316081108128812081388138312C5
:100170003B0EF700F030F70577083A04F8007808EE
:10018000BA00BA1FC52883169128B808031DCA28CB
:100190000810CB280814831608100000831288105A
:1001A0008316881000008312081183160811831229
:1001B000390EBA000F30BA053A08BB002D203908B5
:1001C0000F39BA00BB002D200800831608128812D0
:1001D000081388130811081088108312081083165A
:1001E0000810831288108316881083120811831652
:1001F00008110F308312B40018200130A600260821
:10020000033C031C0B290330BB002D200530B40038
:100210001820A60AFF280230BB002D200530B400AC
:100220001820A6012608033C031C1F2926080420C9
:10023000A700B8012708B9008920A60A12298A1147
:100240000A12762D330803199229BB0037080319C7
:100250009229BB07031833297F30BB02031C922964
:100260000319922937298130BB07031892293B08CB
:10027000F700F801F901FA013408BF00BF1735088B
:10028000BE003608BD001830BB00BC013D1C602913
:100290003A08FA07031C5229F90A031D5229F80AE1
:1002A0000319BC173908F907031C5929F80A03195F
:1002B000BC173808B500B5173508F8070318BC1780
:1002C000BC0DF80CF90CFA0CBF0CBE0CBD0C0310E5
:1002D000BB0B45290130F70703189229F81B772932
:1002E000BF0DFA0DF90DF80DF70303199229BF1F81
:1002F0008829FA0A031D8829F90A031D8829F80AA2
:10030000031D8829F80CF90CFA0CF70A0319922935
:100310003408BC003808BC06BC1F9029F817962981
:10032000F8139629F701F801F901FA0108000030E5
:10033000F8001F08C73978049F000630F700F70B54
:100340009F2900001F151F19A32983161E08831259
:10035000A6001E08A7002708AD002608AC008E30B6
:10036000F7002D08F8002C08F900FA01F808031D21
:10037000C3297908F800F9010830F702F808031DCD
:10038000C329F701CB290310F81BCA29F90DF80D71
:10039000F703C329F8137A08B6007908B50078087E
:1003A000B4007708B300BA01B9012030B800813039
:1003B000B70022217A08AF007908AE007808AD00B6
:1003C0007708AC002F08B6002E08B5002D08B40041
:1003D0002C08B300BA01B9014830B8008530B70025
:1003E00022217A08AF007908AE007808AD007708BE
:1003F000AC002F08B3002E08B2002D08B1002C0865
:10040000B000B701B601B5018930B4003008031956
:10041000CB2ABC0034080319CB2ABC02031C152AC2
:100420007F30BC070318CB2A1B2A8130BC02031C77
:10043000CB2A0319CB2A3C08F700F801F901FA018D
:10044000BB013108BA00BA173208B9003308B80046
:100450001930BC003708B80203183E2A0130B9022F
:1004600003183E2ABA0203183E2ABB0203183E2A8A
:10047000BB0ABA0AB90A3708B807702A3608B9029F
:100480000318592A0130BA020318592ABB0203186B
:10049000592ABB0ABA0A3608B9073708B807031C35
:1004A000702AB90A031D702ABA0A031D702ABB0AF2
:1004B000702A35088038BA0203186F2A0130BB024F
:1004C00003186F2ABB0A35088038BA073608B907FF
:1004D000031C4D2ABA0A031D4D2ABB0A4D2A7A1461
:1004E000BC0B732A7E2A0310B80DB90DBA0DBB0DD3
:1004F0000310FA0DF90DF80DBD0D2A2A3D1C862AB0
:100500000310F80CF90CFA0CBD0C892AF703031937
:10051000CB2ABD1BB22A0310B80DB90DBA0DBB0D05
:100520003708B80203189E2A0130B90203189E2A20
:10053000BA0203189E2ABB02031CC12A3608B9025C
:100540000318A92A0130BA020318A92ABB02031C06
:10055000C12A35088038BA020318B22A0130BB021A
:10056000031CC12AFA0A031DC12AF90A031DC12A64
:10057000F80A031DC12AF70A0319CB2AF80CF90C53
:10058000FA0C3108BC003508BC06BC1FC92AF81794
:10059000CF2AF813CF2AF701F801F901FA017A08F6
:1005A000AB007908AA007808A9007708A8002808F5
:1005B000F7002908F8002A08F9002B08FA008A1128
:1005C0000A12772DA60120102008831687008312B7
:1005D0000710EA2A201020088316870083120714C8
:1005E0000230F700F70BF22AF52A0000201020084D
:1005F0008316870083120710A01420088316870033
:100600008312871CFC2A8E018F018E01A014200802
:100610008316870083128718062B0F08FA000E082E
:10062000F7000F087A02031D0D2B7708A7007A0840
:10063000A8002808AA002708A900AC013A30AB009E
:10064000F801F901F701FA012C08031D2A2B2B08E8
:100650000319442B1030AD000310A90DAA0DF70D9E
:10066000FA0D2C087A02031D372B2B087702031C86
:10067000402B2B08F702031CFA032C08FA02031480
:10068000F80DF90DAD0B2C2B7808A6002608F80004
:100690008A110A12802D350B4E2B512B4030B6009B
:1006A000522BB60101303402B60736088038B70045
:1006B000B8013708B900892008003308073A031940
:1006C0006B2B0B3A0319702B063A0319782B023A5D
:1006D00003197E2B832B0130B400B5004B23882BEC
:1006E000B8010130B90089200230B4001820882BED
:1006F0000130B4000230B5004B23882BB801103014
:10070000B9008920882B0130B8003308B90089204E
:1007100008000B08A7008B13831603178C170C1403
:10072000000000000318BB2B83120C087F39031351
:10073000A80003170D080313A90003170F080313DC
:10074000AA002808B3005D23290803178D000313AE
:100750002A0803178F0083168C170C140000000062
:1007600083120313A60BB52BB82B83160317BB2BD1
:10077000DA2B8316031783120C0D0E0D7F3903132A
:10078000A80003170D080313A90003170F0803138C
:10079000AA002808B3005D23290803178D0003135E
:1007A0002A0803178F008D0A03198F0A03100313F9
:1007B000A60B8C2BA71B8B1708008318E22B3B3052
:1007C00084008313F701F801F901FA01BB01BC01B0
:1007D000BD01BE013A083904380437040319202C3E
:1007E0002030BF000310B30DB40DB50DB60DBB0D19
:1007F000BC0DBD0DBE0D3A083E02031D092C390883
:100800003D02031D092C38083C02031D092C370842
:100810003B02031C1A2C3708BB023808031C380F94
:10082000BC023908031C390FBD023A08031C3A0FF9
:10083000BE020314F70DF80DF90DFA0DBF0BF22BE4
:100840003B088000840A3C088000840A3D08800040
:10085000840A3E08800008000408AB002A08AD00A6
:1008600003194B2C2908B6002808B5002708B40046
:100870002608B300BA01B9012030B8008230B700B1
:1008800022217A08A9007908A8007808A70077082B
:10089000A600AD0B322C2908B6002808B5002708A1
:1008A000B4002608B3003308B63CB300FA0134089C
:1008B000B700B4170310B40CB50CB60CFA0CF90C55
:1008C000F80CF70CB30B5A2CB71F712CF709F80969
:1008D000F909FA09F70A0319F80A0319F90A0319B9
:1008E000FA0A7A08A9007908A8007808A70077080A
:1008F000A600A91F882CAB03AB16A609A709A80957
:10090000A909A60A0319A70A0319A80A0319A90A1B
:100910003B30B2009A30B100CA30B000AF010A30AB
:10092000AD002A080319AB0A831426308400831310
:100930002908B6002808B5002708B4002608B30027
:100940003208BA003108B9003008B8002F08B700E3
:10095000DD237808F708031DC02C2A0A2D0203198D
:10096000C02C2B080319C22C0F392D020319BA2CE5
:100970000318F22CAB1BF22C2B1BC22C2030EE2CBC
:100980002030AB05AB1ED02CAB122A08031DAB03E5
:100990007708AB002D30B3005D232B08F700AB01C7
:1009A0002A082D02031DDE2C7708AB002E30B30081
:1009B0005D232B08F7002030AB0500303030AB1E34
:1009C000EE2CAB122A08031DAB037708AB002D30C9
:1009D000B3005D232B08F700AB013030F707770831
:1009E000B3005D2383103208B6003108B50030082B
:1009F000B4002F08B300BA01B901B8010A30B7003A
:100A0000DD237A08B2007908B1007808B0007708D1
:100A1000AF00AD0B942C8A110A129D2D2908F80104
:100A200028020318162D2808F700222DF701083098
:100A3000AA00A80DF70D290877020318F700F80D92
:100A4000AA0B192D080078082608A8006430A90010
:100A50000E257708A60078083030031D362DA71C18
:100A60003D2DA7193D2D271A2030392DA71127120A
:100A70002714F8077808B3005D232608A8000A3079
:100A8000A9000E257708A60078083030031D4E2DEA
:100A9000A719522D271C522D271A2030F807780845
:100AA000B3005D233030A6072608B3005D238A110A
:100AB0000A12B42D03081F398300FF30A0008316EB
:100AC0001F149F141F159F1107309C0083131F13C1
:100AD00083121F179F1783169F1783121F148316E5
:100AE0001F109F141F159F158312E52897297A0858
:100AF000A4007908A3007808A2007708A100E22AE0
:100B00007808A5000130B400B5004B230C30031762
:100B10008D0000308F00031006300313A6008923D8
:100B2000893084002408A9002308A8002208A7000F
:100B30002108A6000130AA002C2C4330B3005D230D
:100B40000130B4000230B5004B23123003178D0082
:100B500000308F00031006300313A60089232508F8
:100B6000A6001B30A700232D6330B3005D236D303A
:100B7000B3005D230430A600FA30B4001820A60BA1
:060B8000BC2D762D630080
:02400E00313F40
:00000001FF
;PIC16F877A
;CRC=4F01  CREATED="17-Sep-24 17:06"
